S01000004C61704D6963726F2E73726563FD
S11300000C9426010C945D020C9443010C9443015E
S11300100C9443010C9443010C9443010C9443014C
S11300200C9443010C9443010C9443010C9443013C
S11300300C9443010C9410020C9406020C9443019A
S11300400C9443010C9443010C9443010C9443011C
S11300500C94430154015F016A0175017F017F0122
S11300607F017F017F017F017F017F017F017F018C
S11300707F017F017F017F017F017F017F017F017C
S11300807F017F017F017F017F017F017F017F016C
S11300907F017F0154015F016A017501A802C10259
S11300A0DA02F3020B030B030B030B030B030B0327
S11300B00B030B030B030B030B030B030B030B03CC
S11300C00B030B030B030B030B030B030B030B03BC
S11300D00B030B030B030B030B030B03A802C1025B
S11300E0DA02F302180331034A0363037B037B033D
S11300F07B037B037B037B037B037B037B037B030C
S11301007B037B037B037B037B037B037B037B03FB
S11301107B037B037B037B037B037B037B037B03EB
S11301207B037B03180331034A03630387038E03B2
S113013095039C03A203A203A203A203A203A203A6
S1130140A203A203A203A203A203A203A203A20383
S1130150A203A203A203A203A203A203A203A20373
S1130160A203A203A203A203A203A20387038E0392
S113017095039C03AE03B003B203B403B503B50304
S1130180B503B503B503B503B503B503B503B503AB
S1130190B503B503B503B503B503B503B503B5039B
S11301A0B503B503B503B503B503B503B503B5038B
S11301B0B503B503AE03B003B203B403C203DB0358
S11301C0F4030D042504250425042504250425042D
S11301D025042504250425042504250425042504D3
S11301E025042504250425042504250425042504C3
S11301F0250425042504250425042504C203DB0362
S1130200F4030D0432044B0464047D049504950442
S11302109504950495049504950495049504950412
S11302209504950495049504950495049504950402
S113023095049504950495049504950495049504F2
S11302409504950432044B0464047D0411241FBEF8
S1130250CFE5D8E0DEBFCDBF10E0A0E6B0E0E2EF2E
S1130260FAE002C005900D92A436B107D9F720E058
S1130270A4E6B0E001C01D92AC3CB207E1F70E94D5
S1130280E7010C9477050C94000040E00E949C0266
S1130290089590E0FC01E154F109E432F10578F5A8
S11302A0E65DFF4F0C94F9042BB381E090E002C0AB
S11302B0880F991F6A95E2F7822B8BBB089528B3A8
S11302C081E090E002C0880F991F6A95E2F7822BC3
S11302D088BB089525B381E090E002C0880F991F80
S11302E06A95E2F7822B85BB089522B381E090E002
S11302F002C0880F991F6A95E2F7822B82BB08958A
S113030041E060E082E60E940C038FE99FE00197E0
S1130310F1F700C0000040E060E082E60E940C03B8
S11303208FE99FE00197F1F700C000000895982F2E
S1130330862F692F0E94A30340E061E082E60E94B9
S11303400C030E9480010895CF93C82F2FEF81EEF4
S113035094E0215080409040E1F700C000006FEF2E
S11303608C2F0E947C0341E060E082E60E949C02A4
S113037041E061E082E60E949C026C2F88E30E94C7
S113038097018FEC97E00197F1F700C000006C2F04
S11303908FE00E9497018FEC97E00197F1F700C07E
S11303A000006C2F81E00E9497018FE19EE4019789
S11303B0F1F700C000006C2F86E00E9497018FECDB
S11303C097E00197F1F700C00000CF910895789469
S11303D083E60E94A40120E835E240E050E060E0BA
S11303E070E080E090E00E94C1048BB780648BBF12
S11303F085B7826085BF62E084E40E94450162E0C3
S113040084E40E9449010E949604FFCF1F920F9238
S11304100FB60F9211240F900FBE0F901F901895D6
S11304201F920F920FB60F9211242F933F938F9325
S11304309F93EF93FF938CB1809367008091650045
S1130440909166003091640020916700FC01EE0FEA
S1130450FF1F880F991F880F991F880F991FE80F96
S1130460F91FE859FF4FE30FF11D208380916400C9
S11304708F5F8093640080916400813049F480919F
S113048065009091660001969093660080936500E4
S11304908091650090916600029721F410926600A5
S11304A010926500FF91EF919F918F913F912F9151
S11304B00F900FBE0F901F9018951F920F920FB6BA
S11304C00F9211242F933F934F935F936F937F93D6
S11304D08F939F93AF93BF93CF93DF93EF93FF9348
S11304E080E00E94B4042FEF82E597E02150804021
S11304F09040E1F700C00000C0E6D0E08881998117
S11305000E94B4048A819B810E94B4048EEF0E94ED
S1130510B404FF91EF91DF91CF91BF91AF919F917F
S11305208F917F916F915F914F913F912F910F9098
S11305300FBE0F901F90189590E0FC01E154F10953
S1130540E432F10508F067C0E25BFF4F0C94F90454
S1130550413059F42AB381E090E002C0880F991F1A
S11305606A95E2F7822B8ABB08952AB381E090E072
S113057002C0880F991F6A95E2F7809582238ABB8F
S11305800895413059F427B381E090E002C0880F08
S1130590991F6A95E2F7822B87BB089527B381E000
S11305A090E002C0880F991F6A95E2F78095822334
S11305B087BB0895413059F424B381E090E002C030
S11305C0880F991F6A95E2F7822B84BB089524B3A0
S11305D081E090E002C0880F991F6A95E2F7809548
S11305E0822384BB0895413059F421B381E090E023
S11305F002C0880F991F6A95E2F7822B81BB089588
S113060021B381E090E002C0880F991F6A95E2F758
S11306108095822381BB089590E0FC01E154F109A7
S1130620E432F10508F067C0EE58FF4F0C94F9046A
S1130630413059F42BB381E090E002C0880F991F38
S11306406A95E2F7822B8BBB08952BB381E090E08F
S113065002C0880F991F6A95E2F7809582238BBBAD
S11306600895413059F428B381E090E002C0880F26
S1130670991F6A95E2F7822B88BB089528B381E01D
S113068090E002C0880F991F6A95E2F78095822353
S113069088BB0895413059F425B381E090E002C04D
S11306A0880F991F6A95E2F7822B85BB089525B3BD
S11306B081E090E002C0880F991F6A95E2F7809567
S11306C0822385BB0895413059F422B381E090E040
S11306D002C0880F991F6A95E2F7822B82BB0895A6
S11306E022B381E090E002C0880F991F6A95E2F777
S11306F08095822382BB089590E0FC01E154F109C6
S1130700E432F105F8F4EA56FF4F0C94F904613031
S113071019F48FEF8ABB08951ABA0895613019F459
S11307208FEF87BB089517BA0895613019F48FEFDE
S113073084BB089514BA0895613019F48FEF81BB16
S1130740089511BA089590E0FC01E154F109E432EE
S1130750F10558F4E654FF4F0C94F9046BBB08956B
S113076068BB089565BB089562BB089590E0FC01E1
S1130770E154F109E432F10508F067C0E252FF4F99
S11307800C94F90441110CC02AB381E090E002C03A
S1130790880F991F6A95E2F7809582238ABB089592
S11307A02AB381E090E002C0880F991F6A95E2F7AE
S11307B0822B8ABB089541110CC027B381E090E0DD
S11307C002C0880F991F6A95E2F78095822387BB40
S11307D0089527B381E090E002C0880F991F6A95BD
S11307E0E2F7822B87BB089541110CC024B381E04A
S11307F090E002C0880F991F6A95E2F780958223E2
S113080084BB089524B381E090E002C0880F991F4F
S11308106A95E2F7822B84BB089541110CC021B381
S113082081E090E002C0880F991F6A95E2F78095F5
S1130830822381BB089521B381E090E002C0880F38
S1130840991F6A95E2F7822B81BB089590E0FC0121
S1130850E154F109E432F10508F067C0EE5FFE4FA0
S11308600C94F90441110CC02BB381E090E002C058
S1130870880F991F6A95E2F7809582238BBB0895B0
S11308802BB381E090E002C0880F991F6A95E2F7CC
S1130890822B8BBB089541110CC028B381E090E0FA
S11308A002C0880F991F6A95E2F78095822388BB5E
S11308B0089528B381E090E002C0880F991F6A95DB
S11308C0E2F7822B88BB089541110CC025B381E067
S11308D090E002C0880F991F6A95E2F78095822301
S11308E085BB089525B381E090E002C0880F991F6D
S11308F06A95E2F7822B85BB089541110CC022B39F
S113090081E090E002C0880F991F6A95E2F7809514
S1130910822382BB089522B381E090E002C0880F55
S1130920991F6A95E2F7822B82BB089541E064E047
S113093082E40E94B60341E065E082E40E94B603CB
S113094041E067E082E40E94B6038DB180618DB915
S11309508DB181608DB98DB180648DB941E064E061
S113096082E40E9426040895CF93C82F40E064E0F7
S113097082E40E942604CFB9779BFECF8FB1CF913A
S11309800895AF92BF92CF92DF92EF92FF920F93AE
S11309901F93CF93DF9304E00E945E05A22EB32E33
S11309A0C42ED52EE62EF72E082F192F20E032E183
S11309B04AE750E060E070E080E090E00E940105CA
S11309C0022F132F0150110910BD09B98AB1886192
S11309D08AB98AB1806C8AB986E880BDDF91CF91EB
S11309E01F910F91FF90EF90DF90CF90BF90AF9049
S11309F00895EE0FFF1F0590F491E02D099468947B
S1130A0001C0E8948F929F92CF93DF930E940D05CB
S1130A10DF91CF919F908F90089588249924F401B9
S1130A20E401B0E49F93AA279A158B049C04ED0576
S1130A30FE05CF05D007A10798F4AD2FDC2FCF2FEB
S1130A40FE2FE92D982C892E982F872F762F652F2E
S1130A50542F432F322F2227B85031F7BF9127C08C
S1130A601B2EBF91BB27220F331F441F551F661F28
S1130A70771F881F991F881C991CEE1FFF1FCC1F0E
S1130A80DD1FAA1FBB1F8A149B04EC05FD05CE05C0
S1130A90DF05A007B10748F08A189B08EC09FD0997
S1130AA0CE09DF09A00BB10B21601A94E1F62EF4F4
S1130AB09401AF01BE01CD01000C08950F930830DD
S1130AC090F0982F872F762F652F542F432F322F96
S1130AD022270850F4CF220F331F441F551F661FCF
S1130AE0771F881F991F0A95B2F70F910895F894FC
S1050AF0FFCF32
S1070AF2C800C9006B
S9030000FC
