S016000042696C6C696E67204D6F64756C652E73726563C7
S11300000C94BA000C94D7000C94D7000C94D7002D
S11300100C94D7000C94D7000C94D7000C94D70000
S11300200C94D7000C94D7000C94D7000C94D700F0
S11300300C94D7000C94D7000C94D7000C94D700E0
S11300400C94D7000C94D7000C94D7000C94D700D0
S11300500C94D70056036F038803A103B903B903B3
S1130060B903B903B903B903B903B903B903B903AC
S1130070B903B903B903B903B903B903B903B9039C
S1130080B903B903B903B903B903B903B903B9038C
S1130090B903B90356036F038803A103C603DF033F
S11300A0F80311042904290429042904290429042E
S11300B029042904290429042904290429042904D4
S11300C029042904290429042904290429042904C4
S11300D0290429042904290429042904C603DF0363
S11300E0F80311043504370439043B043C043C048C
S11300F03C043C043C043C043C043C043C043C04FC
S11301003C043C043C043C043C043C043C043C04EB
S11301103C043C043C043C043C043C043C043C04DB
S11301203C043C043504370439043B044A045104B8
S113013058045F0465046504650465046504650486
S11301406504650465046504650465046504650463
S11301506504650465046504650465046504650453
S11301606504650465046504650465044A04510472
S113017058045F0411241FBECFE5D8E0DEBFCDBF15
S113018013E0A0E6B0E0E0E4F9E002C005900D92CF
S1130190A63AB107D9F723E0A6EAB3E001C01D925D
S11301A0AA3FB207E1F70E94DD020C949E040C946E
S11301B0000041E062E083E40E94BA038FEC97E020
S11301C00197F1F700C0000040E062E083E40E9480
S11301D0BA038FEC97E00197F1F700C0000008958F
S11301E0CF93C82F682F62956F7083E40E943D04FB
S11301F040E060E083E40E94BA030E94D9006C2FBF
S113020083E40E943D0440E060E083E40E94BA037A
S11302100E94D900CF9108952FEF80E792E02150FA
S113022080409040E1F700C0000060EF83E40E944A
S11302302A0441E060E083E40E944A0341E061E073
S113024083E40E944A0341E062E083E40E944A039B
S113025040E061E083E40E94BA0382E00E94F0007F
S11302608FE097E20197F1F700C0000088E20E9456
S1130270F0008FEC97E00197F1F700C000008EE0EA
S11302800E94F0008FEC97E00197F1F700C00000A6
S113029081E00E94F0008FE097E20197F1F700C03F
S11302A0000086E00E94F0008FEC97E00197F1F7E0
S11302B000C000000895CF93C82F682F62956F7017
S11302C083E40E943D0441E060E083E40E94BA03B9
S11302D00E94D9006C2F83E40E943D0441E060E059
S11302E083E40E94BA030E94D900CF910895CF936A
S11302F0DF93EC0103C00E945B0121968881811188
S1130300FACFDF91CF91089581E00E94F0008FE051
S113031097E20197F1F700C0000008959FEF980F4E
S1130320923020F4613114F4161624F080E80E940F
S1130330F0000DC0813029F48FE7860F0E94F00091
S113034006C0823021F48FEB860F0E94F0008FEC00
S113035097E00197F1F700C0000008950F931F93F1
S1130360CF93DF9300E010E01FC00E9485048093C8
S1130370A7038091A7038F30D1F08091A703F801E0
S1130380EE0FFF1FEE0FFF1FEE0FFF1FE655FC4F92
S1130390EC0FFD1F8083219602C0C0E0D0E0C8307E
S11303A0D1051CF30F5F1F4F0A301105B4F3DF9121
S11303B0CF911F910F91089540E050E041C01092F9
S11303C0A60380E090E01FC0FA01EE0FFF1FEE0FBE
S11303D0FF1FEE0FFF1FE655FC4FE80FF91F30819A
S11303E02EE1249FF001259FF00D1124E05AFF4FC8
S11303F0E80FF91F2489321309C02091A6032F5F47
S11304002093A603019688309105F4F28091A60307
S11304108830A1F48EE1849FF001859FF00D1124B2
S1130420E05AFF4F248D358D8091A8039091A90344
S1130430820F931F9093A9038093A8034F5F5F4F8C
S11304404A3051050CF4BBCF08950E94840180E327
S113045093E00E9477014091A8035091A9039A0167
S1130460369527953695279536952795A5ECB0E2D0
S11304700E948F04929582958F7089279F70892797
S113048068EE73E0869F9001879F300D969F300D34
S11304901124CA01821B930B9093A9038093A80390
S11304A08091A8039091A9030A9738F48091A80336
S11304B09091A9030E945B0176C08091A80390915A
S11304C0A9038436910580F52091A8033091A903EE
S11304D0ADECBCEC0E948F04969587959695879514
S11304E0969587950E945B014091A8035091A903BA
S11304F09A01ADECBCEC0E948F0496958795969575
S11305008795969587959C01220F331F880F991F15
S1130510880F991F880F991F820F931F242F281B60
S1130520822F0E945B013FC02091A8033091A90350
S11305303695279536952795ABE7B4E10E948F044D
S1130540969587950E945B012091A8033091A90399
S1130550ADECBCEC0E948F04969587959695879593
S1130560969587950E945B014091A8035091A90339
S11305709A01ADECBCEC0E948F04969587959695F4
S11305808795969587959C01220F331F880F991F95
S1130590880F991F880F991F820F931F242F281BE0
S11305A0822F0E945B018FEF99E628E181509040F1
S11305B02040E1F700C00000089560E875E280E0A3
S11305C090E00E9466040E940C018CE393E00E9478
S11305D0770161E082E00E948E018DE493E00E9445
S11305E077010E9485048F3CE1F71092A9031092D1
S11305F0A8030E9484018EE593E00E94770161E0E4
S113060082E00E948E018FE693E00E9477010E94AF
S1130610AE010E9484018EE793E00E94770161E0BD
S113062082E00E948E018FE693E00E9477012FEF13
S113063084E39CE0215080409040E1F700C000003A
S11306400E94DC010E9425020E9484018FE893E04D
S11306500E94770161E082E00E948E018AE993E0C2
S11306600E9477012FEF84E39CE02150804090406A
S1130670E1F700C000000E9484018CE393E00E9433
S1130680770161E082E00E948E018DE493E00E9494
S11306907701A7CF90E0FC01E154F109E432F105C0
S11306A008F067C0E65DFF4F0C94890441110CC04B
S11306B02AB381E090E002C0880F991F6A95E2F79F
S11306C0809582238ABB08952AB381E090E002C01A
S11306D0880F991F6A95E2F7822B8ABB089541110E
S11306E00CC027B381E090E002C0880F991F6A957F
S11306F0E2F78095822387BB089527B381E090E0D9
S113070002C0880F991F6A95E2F7822B87BB089570
S113071041110CC024B381E090E002C0880F991FFE
S11307206A95E2F78095822384BB089524B381E01F
S113073090E002C0880F991F6A95E2F7822B84BB70
S1130740089541110CC021B381E090E002C0880FEC
S1130750991F6A95E2F78095822381BB089521B39E
S113076081E090E002C0880F991F6A95E2F7822B1E
S113077081BB089590E0FC01E154F109E432F105F4
S113078008F067C0E25BFF4F0C94890441110CC070
S11307902BB381E090E002C0880F991F6A95E2F7BD
S11307A0809582238BBB08952BB381E090E002C037
S11307B0880F991F6A95E2F7822B8BBB089541112C
S11307C00CC028B381E090E002C0880F991F6A959D
S11307D0E2F78095822388BB089528B381E090E0F6
S11307E002C0880F991F6A95E2F7822B88BB08958F
S11307F041110CC025B381E090E002C0880F991F1D
S11308006A95E2F78095822385BB089525B381E03C
S113081090E002C0880F991F6A95E2F7822B85BB8E
S1130820089541110CC022B381E090E002C0880F0A
S1130830991F6A95E2F78095822382BB089522B3BB
S113084081E090E002C0880F991F6A95E2F7822B3D
S113085082BB089590E0FC01E154F109E432F10512
S113086058F4EE58FF4F0C9489046ABB089567BB93
S1130870089564BB089561BB08956295607F90E01C
S1130880FC01E154F109E432F105F8F4EA56FF4FB2
S11308900C9489048BB38F708BBB8BB3682B6BBBAD
S11308A0089588B38F7088BB88B3682B68BB08959C
S11308B085B38F7085BB85B3682B65BB089582B300
S11308C08F7082BB82B3682B62BB089520E231EA49
S11308D0629FA001639F500D729F500D1124CA01A5
S11308E0019790BD89B98AB188608AB98AB180615B
S11308F08AB986E880BD2FEF82E597E021508040D9
S11309009040E1F700C0000008955F9BFECF8CB1DA
S11309100895EE0FFF1F0590F491E02D0994A29F16
S1130920B001B39FC001A39F700D811D1124911DBF
S1130930B29F700D811D1124911D0895F894FFCF6D
S11309407465610000000000000000000000000069
S113095000000000414243313233343532006567D0
S113096067730000000000000000000000000000A9
S11309700000434447353535363464004170706CAB
S1130980657300000000000000000000000000008B
S1130990475955323636343864005269636500006D
S11309A000000000000000000000000000004859A2
S11309B0493839373534190042616E616E6173000C
S11309C0000000000000000000000000464A553509
S11309D0363437381400636C617373696320636F52
S11309E0666665650000000000004F4955373134E4
S11309F03538550057617465726D656C6F6E000013
S1130A000000000000000000414453373331353604
S1130A101E004D696C6B0000000000000000000027
S1130A2000000000000030393835343332313200F0
S1130A3042726561640000000000000000000000D4
S1130A4000000000414243443334454623004368D8
S1130A5069636B656E000000000000000000000088
S1130A6000004748494A35384B4CC80050617374FC
S1130A706100000000000000000000000000000011
S1130A804D4E4F333450510096004F72616E67657E
S1130A9000000000000000000000000000003039E9
S1130AA0383736353232780043686565736500003F
S1130AB00000000000000000000000004B4C4D4E00
S1130AC035384F502C0153616C6D6F6E000000007F
S1130AD0000000000000000000005657583435366E
S1130AE0595A200369636520637265616D000000D3
S1130AF0000000000000000041424331333444450B
S1130B005A00596F677572740000000000000000FD
S1130B100000000000004647484935384A4B780039
S1130B20426565660000000000000000000000004F
S1130B30000000004C4D4E4F33345051BC02546FF2
S1130B406D61746F000000000000000000000000F0
S1130B50000052533536373856574600506F74618B
S1130B60746F00000000000000000000000000009E
S1130B70585A3132363441423200536F64610000B6
S1130B8000000000000000000000000000004344DA
S1130B904535363446475A00576174657200000083
S1130BA000000000000000000000000048494A3135
S1130BB033344B4C3C004A75696365000000000007
S1130BC0000000000000000000005051523537388A
S1130BD053549600436F6F6B696573000000000007
S1130BE000000000000000005556573133345859B6
S1130BF07800436869707300000000000000000082
S1130C000000000000005A41423536384344640075
S1130C10546F74616C20436F73743D002057656C8E
S1130C20636F6D6520546F204F7572200020202063
S1130C30536D6172742053746F7265202000526585
S1130C406164696E672050726F64756374730050D9
S1130C506C6561736520576169742E2E2E004361A3
S1130C606C63756C6174696E6720636F7374005490
S1130C7068616E6B7320666F7200796F757220768F
S1090C80697369740000B1
S9030000FC
