S016000042696C6C696E67204D6F64756C652E73726563C7
S11300000C94BA000C94D7000C94D7000C94D7002D
S11300100C94D7000C94D7000C94D7000C94D70000
S11300200C94D7000C94D7000C94D7000C94D700F0
S11300300C94D7000C94D7000C94D7000C94D700E0
S11300400C94D7000C94D7000C94D7000C94D700D0
S11300500C94D70080039903B203CB03E303E303B7
S1130060E303E303E303E303E303E303E303E3035C
S1130070E303E303E303E303E303E303E303E3034C
S1130080E303E303E303E303E303E303E303E3033C
S1130090E303E30380039903B203CB03F0030904EE
S11300A022043B04530453045304530453045304DD
S11300B05304530453045304530453045304530484
S11300C05304530453045304530453045304530474
S11300D0530453045304530453045304F003090412
S11300E022043B045F04610463046504660466043B
S11300F066046604660466046604660466046604AC
S1130100660466046604660466046604660466049B
S1130110660466046604660466046604660466048B
S1130120660466045F0461046304650474047B0468
S1130130820489048F048F048F048F048F048F0436
S11301408F048F048F048F048F048F048F048F0413
S11301508F048F048F048F048F048F048F048F0403
S11301608F048F048F048F048F048F0474047B0422
S11301708204890411241FBECFE5D8E0DEBFCDBFC1
S113018011E0A0E6B0E0EAE6F9E002C005900D92C5
S1130190A633B107D9F721E0A6E3B1E001C01D926F
S11301A0AA33B207E1F70E9408030C94B3040C9439
S11301B0000041E062E083E40E94E4038FEC97E0F6
S11301C00197F1F700C0000040E062E083E40E9480
S11301D0E4038FEC97E00197F1F700C00000089565
S11301E0CF93C82F682F62956F7083E40E946704D1
S11301F040E060E083E40E94E4030E94D9006C2F95
S113020083E40E94670440E060E083E40E94E40326
S11302100E94D900CF9108952FEF80E792E02150FA
S113022080409040E1F700C0000060EF83E40E944A
S1130230540441E060E083E40E94740341E061E01F
S113024083E40E94740341E062E083E40E94740347
S113025040E061E083E40E94E40382E00E94F00055
S11302608FE097E20197F1F700C0000088E20E9456
S1130270F0008FEC97E00197F1F700C000008EE0EA
S11302800E94F0008FEC97E00197F1F700C00000A6
S113029081E00E94F0008FE097E20197F1F700C03F
S11302A0000086E00E94F0008FEC97E00197F1F7E0
S11302B000C000000895CF93C82F682F62956F7017
S11302C083E40E94670441E060E083E40E94E40365
S11302D00E94D9006C2F83E40E94670441E060E02F
S11302E083E40E94E4030E94D900CF910895CF9340
S11302F0DF93EC0103C00E945B0121968881811188
S1130300FACFDF91CF91089581E00E94F0008FE051
S113031097E20197F1F700C0000008959FEF980F4E
S1130320923020F4613114F4161624F080E80E940F
S1130330F0000DC0813029F48FE7860F0E94F00091
S113034006C0823021F48FEB860F0E94F0008FEC00
S113035097E00197F1F700C0000008950F931F93F1
S1130360CF93DF93C0E0D0E017C08FEF0E949904D1
S1130370833319F4CE01019614C0FE01E85CFE4FEC
S1130380E00FF11F80830F5F1F4F02C000E010E0F9
S11303901016110654F72196C230D105BCF382E041
S11303A090E0DF91CF911F910F91089520E030E00C
S11303B042C0F901E85CFE4FE40FF51F608170E074
S11303C0F901EE0FFF1FE20FF31FEE0FFF1FEE0FF9
S11303D0FF1FEE0FFF1FE05AFF4F0488F589E02D41
S11303E06E177F0759F411964F5F5F4F04C040E0CA
S11303F050E0A0E0B0E014161506DCF61197C9F43D
S1130400F901EE0FFF1FE20FF31FEE0FFF1FEE0FB8
S1130410FF1FEE0FFF1FE05AFF4F66897789409157
S1130420360150913701460F571F509337014093BF
S113043036012F5F3F4F28173907CCF208950E94E9
S1130440840180EC90E00E947701809136019091C4
S113045037010A9740F48091360190913701805D0D
S11304600E945B01CBC080913601909137018436A4
S1130470910508F04CC02091360130913701ADEC64
S1130480BCEC0E94A404AC0156954795569547953B
S1130490569547959A010E94A4049695879596953A
S11304A08795969587959C01220F331F880F991F76
S11304B0880F991F880F991F820F931F9A01281B79
S11304C0390BC901805D0E945B0140913601509156
S11304D037019A01ADECBCEC0E94A4049695879573
S11304E096958795969587959C01220F331F880FC3
S11304F0991F880F991F880F991F820F931F9A01C4
S1130500281B390BC901805D0E945B0177C02091D3
S11305103601309137013695279536952795ABE707
S1130520B4E10E94A404AC01569547959A01ADEC40
S1130530BCEC0E94A404969587959695879596950C
S113054087959C01220F331F880F991F880F991FCD
S1130550880F991F820F931F9A01281B390BC90119
S1130560805D0E945B012091360130913701ADEC32
S1130570BCEC0E94A404AC0156954795569547954A
S1130580569547959A010E94A40496958795969549
S11305908795969587959C01220F331F880F991F85
S11305A0880F991F880F991F820F931F9A01281B88
S11305B0390BC901805D0E945B0140913601509165
S11305C037019A01ADECBCEC0E94A4049695879582
S11305D096958795969587959C01220F331F880FD2
S11305E0991F880F991F880F991F820F931F9A01D3
S11305F0281B390BC901805D0E945B013FEF89E62E
S113060098E1315080409040E1F700C00000089527
S11306100E940C018CEC90E00E94770161E082E082
S11306200E948E018DED90E00E9477010E9490045B
S11306308FEF0E9499048533D9F7109237011092F5
S113064036010E9484018EEE90E00E94770161E001
S113065082E00E948E018FEF90E00E9477010E9459
S1130660AE01EC010E9484018EE091E00E947701CA
S113067061E082E00E948E018FEF90E00E9477019A
S11306802FEF84E39CE0215080409040E1F700C0CC
S11306900000CE010E94D6010E941F020E94840124
S11306A08FE191E00E94770161E082E00E948E0177
S11306B08AE291E00E9477012FEF84E39CE02150CD
S11306C080409040E1F700C000000E9484018CEC5F
S11306D090E00E94770161E082E00E948E018DED3E
S11306E090E00E947701A4CF90E0FC01E154F1096D
S11306F0E432F10508F067C0E65DFF4F0C949E04F8
S113070041110CC02AB381E090E002C0880F991F08
S11307106A95E2F7809582238ABB08952AB381E023
S113072090E002C0880F991F6A95E2F7822B8ABB7A
S1130730089541110CC027B381E090E002C0880FF6
S1130740991F6A95E2F78095822387BB089527B3A2
S113075081E090E002C0880F991F6A95E2F7822B2E
S113076087BB089541110CC024B381E090E002C01E
S1130770880F991F6A95E2F78095822384BB0895B8
S113078024B381E090E002C0880F991F6A95E2F7D4
S1130790822B84BB089541110CC021B381E090E009
S11307A002C0880F991F6A95E2F78095822381BB66
S11307B0089521B381E090E002C0880F991F6A95E3
S11307C0E2F7822B81BB089590E0FC01E154F1092A
S11307D0E432F10508F067C0E25BFF4F0C949E041D
S11307E041110CC02BB381E090E002C0880F991F27
S11307F06A95E2F7809582238BBB08952BB381E041
S113080090E002C0880F991F6A95E2F7822B8BBB98
S1130810089541110CC028B381E090E002C0880F14
S1130820991F6A95E2F78095822388BB089528B3BF
S113083081E090E002C0880F991F6A95E2F7822B4D
S113084088BB089541110CC025B381E090E002C03B
S1130850880F991F6A95E2F78095822385BB0895D6
S113086025B381E090E002C0880F991F6A95E2F7F2
S1130870822B85BB089541110CC022B381E090E026
S113088002C0880F991F6A95E2F78095822382BB84
S1130890089522B381E090E002C0880F991F6A9501
S11308A0E2F7822B82BB089590E0FC01E154F10948
S11308B0E432F10558F4EE58FF4F0C949E046ABBE1
S11308C0089567BB089564BB089561BB089562955C
S11308D0607F90E0FC01E154F109E432F105F8F4A1
S11308E0EA56FF4F0C949E048BB38F708BBB8BB373
S11308F0682B6BBB089588B38F7088BB88B3682B53
S113090068BB089585B38F7085BB85B3682B65BBC1
S1130910089582B38F7082BB82B3682B62BB089543
S11309208DB180648DB941E066E082E40E94740375
S113093008958FB9779BFECF8FB10895EE0FFF1FF7
S11309400590F491E02D0994A29FB001B39FC001DA
S1130950A39F700D811D1124911DB29F700D811DE7
S10D09601124911D0895F894FFCFAF
S113096A746561000000000000000000000000003F
S113097A00000000C80032006567677300000000C9
S113098A000000000000000000000000C90064002C
S113099A4170706C657300000000000000000000E4
S11309AA00000000CA006400526963650000000088
S11309BA000000000000000000000000CB00190045
S11309CA546F74616C20436F73743D002057656CD7
S11309DA636F6D6520546F204F75722000202020AC
S11309EA536D6172742053746F72652020005265CE
S11309FA6164696E672050726F6475637473005022
S1130A0A6C6561736520576169742E2E2E004361EB
S1130A1A6C63756C6174696E6720636F73740054D8
S1130A2A68616E6B7320666F7200796F75722076D7
S1090A3A697369740000F9
S9030000FC
