:100000000C94BA000C94D7000C94D7000C94D70031
:100010000C94D7000C94D7000C94D7000C94D70004
:100020000C94D7000C94D7000C94D7000C94D700F4
:100030000C94D7000C94D7000C94D7000C94D700E4
:100040000C94D7000C94D7000C94D7000C94D700D4
:100050000C94D700B003C903E203FB031304130499
:1000600013041304130413041304130413041304D8
:1000700013041304130413041304130413041304C8
:1000800013041304130413041304130413041304B8
:1000900013041304B003C903E203FB03200439046F
:1000A00052046B0483048304830483048304830461
:1000B0008304830483048304830483048304830408
:1000C00083048304830483048304830483048304F8
:1000D0008304830483048304830483042004390495
:1000E00052046B048F0491049304950496049604BF
:1000F0009604960496049604960496049604960430
:10010000960496049604960496049604960496041F
:10011000960496049604960496049604960496040F
:10012000960496048F04910493049504A404AB04EC
:10013000B204B904BF04BF04BF04BF04BF04BF04BA
:10014000BF04BF04BF04BF04BF04BF04BF04BF0497
:10015000BF04BF04BF04BF04BF04BF04BF04BF0487
:10016000BF04BF04BF04BF04BF04BF04A404AB04A6
:10017000B204B90411241FBECFE5D8E0DEBFCDBF65
:1001800011E0A0E6B0E0E8EFFCE002C005900D92BF
:10019000A634B107D9F721E0A6E4B1E001C01D9271
:1001A000AA34B207E1F70E9438030C947A060C9443
:1001B000000041E062E083E40E9414048FEC97E0C9
:1001C0000197F1F700C0000040E062E083E40E9484
:1001D00014048FEC97E00197F1F700C00000089538
:1001E000CF93C82F682F62956F7083E40E949704A5
:1001F00040E060E083E40E9414040E94D9006C2F68
:1002000083E40E94970440E060E083E40E941404C9
:100210000E94D900CF9108952FEF80E792E02150FE
:1002200080409040E1F700C0000060EF83E40E944E
:10023000840441E060E083E40E94A40341E061E0C3
:1002400083E40E94A40341E062E083E40E94A403EB
:1002500040E061E083E40E94140482E00E94F00028
:100260008FE097E20197F1F700C0000088E20E945A
:10027000F0008FEC97E00197F1F700C000008EE0EE
:100280000E94F0008FEC97E00197F1F700C00000AA
:1002900081E00E94F0008FE097E20197F1F700C043
:1002A000000086E00E94F0008FEC97E00197F1F7E4
:1002B00000C000000895CF93C82F682F62956F701B
:1002C00083E40E94970441E060E083E40E94140408
:1002D0000E94D9006C2F83E40E94970441E060E003
:1002E00083E40E9414040E94D900CF910895CF9313
:1002F000DF93EC0103C00E945B012196888181118C
:10030000FACFDF91CF91089581E00E94F0008FE055
:1003100097E20197F1F700C0000008959FEF980F52
:10032000923020F4613114F4161624F080E80E9413
:10033000F0000DC0813029F48FE7860F0E94F00095
:1003400006C0823021F48FEB860F0E94F0008FEC04
:1003500097E00197F1F700C0000008950F931F93F5
:10036000CF93DF93C0E0D0E017C08FEF0E94C904A5
:100370008E3F19F4CE01019614C0FE01E85BFE4FDA
:10038000E00FF11F80830F5F1F4F02C000E010E0FD
:100390001016110654F72196C230D105BCF382E045
:1003A00090E0DF91CF911F910F9108958F929F92CE
:1003B000AF92BF92CF92DF92EF92FF920F931F9373
:1003C000CF93DF938C01C0E0D0E058C0FE01E85B22
:1003D000FE4FE80FF91F208130E06CE16C9FF001C7
:1003E0006D9FF00D1124E05AFF4F6489758926171F
:1003F000370759F44F5F5F4F019604C080E090E0EB
:1004000040E050E0181619060CF741305105A9F5E7
:10041000C0904601D09047012CE12C9FC0012D9F38
:10042000900D11249C01205A3F4F7901F9016689F2
:10043000778980E090E00E946A054B015C01F7013A
:10044000208D318D428D538D0E94F8059B01AC01AA
:10045000C501B4010E94CE044B015C01B60180E0ED
:1004600090E00E946A05A50194010E94CF040E94B9
:100470003B0570934701609346012196C017D10751
:100480000CF4BCCFDF91CF911F910F91FF90EF90B3
:10049000DF90CF90BF90AF909F908F9008950E9473
:1004A000840180ED90E00E94770180914601909157
:1004B00047010A9740F48091460190914701805D81
:1004C0000E945B01CBC08091460190914701843628
:1004D000910508F04CC02091460130914701ADECE8
:1004E000BCEC0E946B06AC01569547955695479516
:1004F000569547959A010E946B0696958795969515
:100500008795969587959C01220F331F880F991F19
:10051000880F991F880F991F820F931F9A01281B1C
:10052000390BC901805D0E945B01409146015091E9
:1005300047019A01ADECBCEC0E946B06969587953D
:1005400096958795969587959C01220F331F880F66
:10055000991F880F991F880F991F820F931F9A0167
:10056000281B390BC901805D0E945B0177C0209177
:100570004601309147013695279536952795ABE78B
:10058000B4E10E946B06AC01569547959A01ADEC1B
:10059000BCEC0E946B0696958795969587959695E7
:1005A00087959C01220F331F880F991F880F991F71
:1005B000880F991F820F931F9A01281B390BC901BD
:1005C000805D0E945B012091460130914701ADECB6
:1005D000BCEC0E946B06AC01569547955695479525
:1005E000569547959A010E946B0696958795969524
:1005F0008795969587959C01220F331F880F991F29
:10060000880F991F880F991F820F931F9A01281B2B
:10061000390BC901805D0E945B01409146015091F8
:1006200047019A01ADECBCEC0E946B06969587954C
:1006300096958795969587959C01220F331F880F75
:10064000991F880F991F880F991F820F931F9A0176
:10065000281B390BC901805D0E945B013FEF89E6D1
:1006600098E1315080409040E1F700C000000895CB
:100670000E940C018CED90E00E94770161E082E025
:100680000E948E018DEE90E00E9477010E94C004CE
:100690008FEF0E94C9048111FBCF10924701109285
:1006A00046010E9484018EEF90E00E94770161E094
:1006B00082E00E948E018FE091E00E9477010E940B
:1006C000AE01EC010E9484018EE191E00E9477016D
:1006D00061E082E00E948E018FE091E00E9477014C
:1006E0002FEF84E39CE0215080409040E1F700C070
:1006F0000000CE010E94D6010E944F020E94840198
:100700008FE291E00E94770161E082E00E948E0119
:100710008AE391E00E9477012FEF84E39CE021506F
:1007200080409040E1F700C000000E9484018CED01
:1007300090E00E94770161E082E00E948E018DEEE0
:1007400090E00E947701A4CF90E0FC01E154F10910
:10075000E432F10508F067C0E65DFF4F0C946506D2
:1007600041110CC02AB381E090E002C0880F991FAC
:100770006A95E2F7809582238ABB08952AB381E0C7
:1007800090E002C0880F991F6A95E2F7822B8ABB1E
:10079000089541110CC027B381E090E002C0880F9A
:1007A000991F6A95E2F78095822387BB089527B346
:1007B00081E090E002C0880F991F6A95E2F7822BD2
:1007C00087BB089541110CC024B381E090E002C0C2
:1007D000880F991F6A95E2F78095822384BB08955C
:1007E00024B381E090E002C0880F991F6A95E2F778
:1007F000822B84BB089541110CC021B381E090E0AD
:1008000002C0880F991F6A95E2F78095822381BB09
:10081000089521B381E090E002C0880F991F6A9586
:10082000E2F7822B81BB089590E0FC01E154F109CD
:10083000E432F10508F067C0E25BFF4F0C946506F7
:1008400041110CC02BB381E090E002C0880F991FCA
:100850006A95E2F7809582238BBB08952BB381E0E4
:1008600090E002C0880F991F6A95E2F7822B8BBB3C
:10087000089541110CC028B381E090E002C0880FB8
:10088000991F6A95E2F78095822388BB089528B363
:1008900081E090E002C0880F991F6A95E2F7822BF1
:1008A00088BB089541110CC025B381E090E002C0DF
:1008B000880F991F6A95E2F78095822385BB08957A
:1008C00025B381E090E002C0880F991F6A95E2F796
:1008D000822B85BB089541110CC022B381E090E0CA
:1008E00002C0880F991F6A95E2F78095822382BB28
:1008F000089522B381E090E002C0880F991F6A95A5
:10090000E2F7822B82BB089590E0FC01E154F109EB
:10091000E432F10558F4EE58FF4F0C9465066ABBBB
:10092000089567BB089564BB089561BB08956295FF
:10093000607F90E0FC01E154F109E432F105F8F444
:10094000EA56FF4F0C9465068BB38F708BBB8BB34D
:10095000682B6BBB089588B38F7088BB88B3682BF6
:1009600068BB089585B38F7085BB85B3682B65BB65
:10097000089582B38F7082BB82B3682B62BB0895E7
:100980008DB180648DB941E066E082E40E94A403E9
:1009900008958FB9779BFECF8FB108955058BB272C
:1009A000AA270E94E6040C94BE050E94B00538F008
:1009B0000E94B70520F039F49F3F19F426F40C94F7
:1009C000AD050EF4E095E7FB0C94A705E92F0E9416
:1009D000CF0558F3BA17620773078407950720F00D
:1009E00079F4A6F50C94F1050EF4E0950B2EBA2FD0
:1009F000A02D0B01B90190010C01CA01A001112425
:100A0000FF27591B99F0593F50F4503E68F11A16D0
:100A1000F040A22F232F342F4427585FF3CF469561
:100A200037952795A795F0405395C9F77EF41F1683
:100A3000BA0B620B730B840BBAF09150A1F0FF0F4D
:100A4000BB1F661F771F881FC2F70EC0BA0F621F39
:100A5000731F841F48F4879577956795B795F79529
:100A60009E3F08F0B0CF9395880F08F09927EE0FBE
:100A70009795879508950E94D70588F09F5798F01D
:100A8000B92F9927B751B0F0E1F0660F771F881F93
:100A9000991F1AF0BA95C9F714C0B13091F00E94AD
:100AA000F105B1E008950C94F105672F782F8827A0
:100AB000B85F39F0B93FCCF3869577956795B395D4
:100AC000D9F73EF490958095709561957F4F8F4F43
:100AD0009F4F0895E89409C097FB3EF49095809548
:100AE000709561957F4F8F4F9F4F9923A9F0F92FF4
:100AF00096E9BB279395F695879577956795B79572
:100B0000F111F8CFFAF4BB0F11F460FF1BC06F5F57
:100B10007F4F8F4F9F4F16C0882311F096E911C069
:100B2000772321F09EE8872F762F05C0662371F08A
:100B300096E8862F70E060E02AF09A95660F771F9E
:100B4000881FDAF7880F9695879597F9089597F992
:100B50009F6780E870E060E008959FEF80EC089563
:100B600000240A941616170618060906089500248C
:100B70000A9412161306140605060895092E039406
:100B8000000C11F4882352F0BB0F40F4BF2B11F47A
:100B900060FF04C06F5F7F4F8F4F9F4F089557FDD9
:100BA0009058440F551F59F05F3F71F04795880FDB
:100BB00097FB991F61F09F3F79F087950895121672
:100BC00013061406551FF2CF4695F1DF08C016161E
:100BD00017061806991FF1CF8695710561050894CF
:100BE0000895E894BB2766277727CB0197F90895E6
:100BF0000E940B060C94BE050E94B00538F00E94BE
:100C0000B70520F0952311F00C94A7050C94AD05C1
:100C100011240C94F2050E94CF0570F3959FC1F347
:100C2000950F50E0551F629FF001729FBB27F00D9A
:100C3000B11D639FAA27F00DB11DAA1F649F6627EF
:100C4000B00DA11D661F829F2227B00DA11D621F3E
:100C5000739FB00DA11D621F839FA00D611D221FF8
:100C6000749F3327A00D611D231F849F600D211DDC
:100C7000822F762F6A2F11249F5750409AF0F1F05F
:100C800088234AF0EE0FFF1FBB1F661F771F881FC8
:100C900091505040A9F79E3F510580F00C94A70554
:100CA0000C94F2055F3FE4F3983ED4F38695779574
:100CB0006795B795F795E7959F5FC1F7FE2B880F6E
:100CC000911D9695879597F90895EE0FFF1F059052
:100CD000F491E02D0994A29FB001B39FC001A39F9E
:100CE000700D811D1124911DB29F700D811D112465
:080CF000911D0895F894FFCF57
:100CF80074656100000000000000000000000000B2
:100D080000000000C8003200CDCC4C3E6567677318
:100D180000000000000000000000000000000000CB
:100D2800C9006400CDCC4C3E4170706C6573000006
:100D3800000000000000000000000000CA0064007D
:100D4800CDCC4C3E526963650000000000000000F5
:100D58000000000000000000CB001900CDCCCC3D05
:100D6800546F74616C20436F73743D002057656C39
:100D7800636F6D6520546F204F757220002020200E
:100D8800536D6172742053746F7265202000526530
:100D98006164696E672050726F6475637473005084
:100DA8006C6561736520576169742E2E2E0043614E
:100DB8006C63756C6174696E6720636F737400543B
:100DC80068616E6B7320666F7200796F757220763A
:060DD8006973697400005C
:00000001FF
