:100000000C94BA000C94C4000C94C4000C94C4006A
:100010000C94C4000C94C4000C94C4000C94C40050
:100020000C94C4000C94C4000C94C4000C94C40040
:100030000C94C4000C94C4000C94C4000C94C40030
:100040000C94C4000C94C4000C94C4000C94C40020
:100050000C94C4005D0176018F01A801C001C001AC
:10006000C001C001C001C001C001C001C001C00188
:10007000C001C001C001C001C001C001C001C00178
:10008000C001C001C001C001C001C001C001C00168
:10009000C001C0015D0176018F01A801CD01E6011B
:1000A000FF0118023002300230023002300230020A
:1000B00030023002300230023002300230023002B0
:1000C00030023002300230023002300230023002A0
:1000D000300230023002300230023002CD01E6013F
:1000E000FF0118023C023E02400242024302430268
:1000F00043024302430243024302430243024302D8
:1001000043024302430243024302430243024302C7
:1001100043024302430243024302430243024302B7
:10012000430243023C023E02400242025102580294
:100130005F0266026C026C026C026C026C026C0262
:100140006C026C026C026C026C026C026C026C023F
:100150006C026C026C026C026C026C026C026C022F
:100160006C026C026C026C026C026C02510258024E
:100170005F02660211241FBECFE5D8E0DEBFCDBF0F
:100180000E9448010C9492020C94000041E062E04D
:1001900083E40E94C1018FEC97E00197F1F700C062
:1001A000000040E062E083E40E94C1018FEC97E030
:1001B0000197F1F700C000000895CF93C82F682F72
:1001C00062956F7083E40E94440240E060E083E443
:1001D0000E94C1010E94C6006C2F83E40E94440269
:1001E00040E060E083E40E94C1010E94C600CF911C
:1001F00008952FEF80E792E0215080409040E1F792
:1002000000C0000060EF83E40E94310241E060E042
:1002100083E40E94510141E061E083E40E945101C6
:1002200041E062E083E40E94510140E061E083E448
:100230000E94C10182E00E94DD008FE097E20197F9
:10024000F1F700C0000088E20E94DD008FEC97E02B
:100250000197F1F700C000008EE00E94DD008FECF6
:1002600097E00197F1F700C0000081E00E94DD00F7
:100270008FE097E20197F1F700C0000086E00E944E
:10028000DD008FEC97E00197F1F700C000000895C2
:1002900060E875E280E090E00E946D020E94F90043
:1002A000FFCF90E0FC01E154F109E432F10508F0E0
:1002B00067C0E65DFF4F0C948C0241110CC02AB35D
:1002C00081E090E002C0880F991F6A95E2F780955F
:1002D00082238ABB08952AB381E090E002C0880F90
:1002E000991F6A95E2F7822B8ABB089541110CC0D1
:1002F00027B381E090E002C0880F991F6A95E2F76A
:100300008095822387BB089527B381E090E002C0E7
:10031000880F991F6A95E2F7822B87BB08954111D8
:100320000CC024B381E090E002C0880F991F6A9549
:10033000E2F78095822384BB089524B381E090E0A6
:1003400002C0880F991F6A95E2F7822B84BB08953B
:1003500041110CC021B381E090E002C0880F991FC9
:100360006A95E2F78095822381BB089521B381E0ED
:1003700090E002C0880F991F6A95E2F7822B81BB3B
:10038000089590E0FC01E154F109E432F10508F030
:1003900067C0E25BFF4F0C948C0241110CC02BB381
:1003A00081E090E002C0880F991F6A95E2F780957E
:1003B00082238BBB08952BB381E090E002C0880FAD
:1003C000991F6A95E2F7822B8BBB089541110CC0EF
:1003D00028B381E090E002C0880F991F6A95E2F788
:1003E0008095822388BB089528B381E090E002C005
:1003F000880F991F6A95E2F7822B88BB08954111F7
:100400000CC025B381E090E002C0880F991F6A9567
:10041000E2F78095822385BB089525B381E090E0C3
:1004200002C0880F991F6A95E2F7822B85BB089559
:1004300041110CC022B381E090E002C0880F991FE7
:100440006A95E2F78095822382BB089522B381E00A
:1004500090E002C0880F991F6A95E2F7822B82BB59
:10046000089590E0FC01E154F109E432F10558F4FB
:10047000EE58FF4F0C948C026ABB089567BB089539
:1004800064BB089561BB08956295607F90E0FC01B4
:10049000E154F109E432F105F8F4EA56FF4F0C9407
:1004A0008C028BB38F708BBB8BB3682B6BBB0895A7
:1004B00088B38F7088BB88B3682B68BB089585B3F9
:1004C0008F7085BB85B3682B65BB089582B38F7031
:1004D00082BB82B3682B62BB089520E231EA629F3F
:1004E000A001639F500D729F500D1124CA01019706
:1004F00090BD89B98AB188608AB98AB180618AB9A8
:1005000086E880BD2FEF82E597E021508040904043
:10051000E1F700C000000895EE0FFF1F0590F49171
:08052000E02D0994F894FFCFCF
:00000001FF
